:0400000007EF00F016
:100008004F822AED03F03DEF06F0200E2F6E35D11A
:10001800250E3918D8B409D01CC0D9FF1DC0DAFF85
:1000280039C0DFFF1C4A1D2A28D1000E386E000E89
:10003800376E316A03D031841E4A1F2A1EC0F6FF6C
:100048001FC0F7FF0800F550300AD8B4F4D71EC017
:10005800F6FF1FC0F7FF0800F55005EC07F0D8A021
:100068006FD0000E386E000E376E37C010F038C0F3
:1000780011F0000E136E0A0E126EC2EC06F010C0DC
:1000880037F011C038F01EC0F6FF1FC0F7FF080098
:10009800F5CF2CF0D00E2C242D6E2E6AFF0E2E22BA
:1000A8002D5037262E5038221E4A1F2A1EC0F6FF12
:1000B8001FC0F7FF0800F55005EC07F0D8A040D0A6
:1000C800D4D7385004E1020E375CD8A004D03706E4
:1000D800D8A038060DD0000E386E000E376E08D046
:1000E8001CC0D9FF1DC0DAFF200EDF6E1C4A1D2A76
:1000F8003706D8A038063728F3E13828D8B40DD009
:10010800EFD73050D96EDA6A1CC0E1FF1DC0E2FF9C
:10011800DFCFE7FF302A1C4A1D2A3506D8A036064D
:100128003528EFE13628D8B4A8D0EBD7390E306E91
:10013800000E366E010E356EC4D7C00E311211D0C6
:100148001EC0F6FF1FC0F7FF1E4A1F2A0800F5CF82
:1001580039F03950000AD8B49CD0750AD8B4EDD714
:10016800E5D72F50D96EDA6ADECF32F0DDCF33F023
:10017800020E2F26010E396E050E3918D8B412D08A
:100188003950020D370EF324F66E7E0EF420F76E0A
:100198000900F550325C0900F5503358D8A002D058
:1001A800392AEAD739502C6E2D6A37502C5C2D50DD
:1001B800800A2E6E3850800A2E58D8B005D0395093
:1001C800375E000E385A04D0000E386E000E376EB7
:1001D80031A410D037503810D8B41FD01CC0D9FF64
:1001E8001DC0DAFF300EDF6E1C4A1D2A3706D8A064
:1001F8003806F0D737503810D8B40FD01CC0D9FF04
:100208001DC0DAFF200EDF6E1C4A1D2A3706D8A053
:10021800380637503810D8A4F1D739C034F029D06F
:100228003450020D370EF324F66E7E0EF420F76E6E
:100238000900F5CF12F00A00F5CF13F032C010F024
:1002480033C011F075EC05F010C017F011C018F0AC
:10025800000E1A6E0A0E196E81EC06F01750300F58
:10026800396E1CC0D9FF1DC0DAFF39C0DFFF1C4A38
:100278001D2A34063428D8A4D3D71EC0F6FF1FC0C1
:10028800F7FF1E4A1F2A0800F5CF39F03950D8A4C5
:10029800BFD61CC0D9FF1DC0DAFFDF6A1200780E76
:1002A800106E010E116E600E126E136A5FEC06F08E
:1002B8000101DF6B600E106E000E126E000E116EE3
:1002C800000E146E400E136ED5EC06F0DE51D8A465
:1002D8001ED0780E106E010E116EED0E126E7F0E8E
:1002E800136E18EC06F010501110D8A410D0010E9F
:1002F8000101DE6FDB0E116E7E0E126E4CEC05F006
:10030800410E116E7E0E126E4CEC05F012000101CA
:10031800DE51D8B455D0780E106E010E116EF40E61
:10032800126E7F0E136E18EC06F010501110D8A440
:1003380009D00101DE6BF00E116E7E0E126E4CECD0
:1003480005F01200780E136E010E146EC9EC03F05E
:1003580013C0DAF114C0DBF10101DBBF20D0DBBF31
:1003680006D0DB511CE1650EDA5DD8B018D0DA5141
:100378002EEC04F0000E1C6E010E1D6E410E1E6E5A
:100388007F0E1F6EDAC120F0DBC121F009EC00F00E
:10039800000E116E010E126E4CEC05F006D0A00E88
:1003A800116E7F0E126E4CEC05F00101DE51D8B4CF
:1003B8001200410E116E7E0E126E4CEC05F012000A
:1003C800780E106E010E116EFB0E126E7F0E136EFC
:1003D800000E156E030E146EBEEC04F010501110D2
:1003E800D8A434D07B0E136E010E146EC9EC03F042
:1003F80013C0DCF114C0DDF10101DDBF20D0DDBF89
:1004080006D0DD511CE1650EDC5DD8B018D0DC519A
:100418002EEC04F0280E1C6E010E1D6E2E0E1E6EA4
:100428007F0E1F6EDCC120F0DDC121F009EC00F069
:10043800280E116E010E126E4CEC05F012008D0E96
:10044800116E7E0E126E4CEC05F01200780E106ED6
:10045800010E116EE50E126E7F0E136E18EC06F08B
:1004680010501110D8A41CD0000EA2EC06F010C039
:10047800D8F111C0D9F1500E1C6E010E1D6EC30EBD
:100488001E6E7F0E1F6ED8C120F0D9C121F009EC75
:1004980000F0500E116E010E126E4CEC05F01200B9
:1004A800780E106E010E116EDC0E126E7F0E136E3A
:1004B80018EC06F010501110D8A419D0B80E3A6EE6
:1004C800010E3B6E82EC02F0D10E116E7F0E126EA1
:1004D8004CEC05F0B80E116E010E126E4CEC05F0E6
:1004E8003E0E116E7F0E126E4CEC05F01200AB0E34
:1004F800116E7E0E126E4CEC05F01200F6EC06F052
:10050800D00E9EEC05F00009D8A40DD0E7EC06F05B
:100518003AC010F03BC011F07A0E126E7F0E136EC7
:100528005FEC06F01200000E9EEC05F00009D8A45E
:100538000DD0E7EC06F03AC010F03BC011F0C40E45
:10054800126E7E0E136E5FEC06F01200F6EC06F0EB
:10055800D10E9EEC05F00009D8A40DD0E7EC06F00A
:100568003AC010F03BC011F08D0E126E7F0E136E64
:100578005FEC06F01200010EF0EC05F0456E010E7E
:10058800F0EC05F03C6E010EF0EC05F0476E010E44
:10059800F0EC05F0010EF0EC05F03D6E010EF0EC0C
:1005A80005F03E6E000EF0EC05F03F6EE7EC06F04D
:1005B800459E45501FEC07F0406E3C501FEC07F07D
:1005C800416E47AC14D047501F0B1FEC07F0466E26
:1005D80047AA07D00C0E4618D8B40ED00C0E4626E3
:1005E8000BD00C0E4618D8A407D0466A05D0475041
:1005F8003F0B1FEC07F0466E3D501FEC07F0426EB4
:100608003E501F0B1FEC07F0436E3F501FEC07F0E6
:10061800446E3AC01CF03BC01DF06D0E1E6E7E0E7F
:100628001F6E46C020F0216A41C022F0236A40C0F4
:1006380024F0256A42C026F0276A43C028F0296AB8
:1006480044C02AF02B6A09EC00F012000600E9CF3A
:1006580004F0EACF05F0D9CF06F0DACF07F0F6CFED
:1006680008F0F7CF09F0F8CF0AF0F5CF0BF09EAA03
:100678001FD03CEC07F00F6E0D0E0F18D8B404D045
:100688000A0E0F18D8A409D00101DF51600FD96EE6
:10069800DA6ADF6A010E4E6E0BD03F0E0101DF6190
:1006A80007D0DF51600FD96EDA6A0FC0DFFFDF2B8A
:1006B800F2A059D0000E81B8010E0C6E000E81BA5E
:1006C800010E0D6E000E81BC010E0E6E4A04D8A4F8
:1006D8000BD00C50D8A408D0010E4B6E050E026E3C
:1006E8007F0E036EC7EC05F04904D8A40BD00D505B
:1006F800D8A408D0020E4B6E540E026E7F0E036E05
:10070800C7EC05F04804D8A41AD00E50D8A417D0C6
:100718004D50D8A402D0010E01D0000E4D6E4D50A0
:10072800D8B407D0670E026E7F0E036EC7EC05F0D3
:1007380006D0B20E026E7F0E036EC7EC05F04D5068
:10074800D8B408D04B04D8A402D08C8004D08C90A4
:100758008C8202D08C908C920CC04AF00DC049F06B
:100768000EC048F0F2900BC0F5FF0AC0F8FF09C0B0
:10077800F7FF08C0F6FF07C0DAFF06C0D9FF05C0BB
:10078800EAFF04C0E9FF4F92110002D0134A142A6D
:1007980013C0D9FF14C0DAFF200EDE18D8B4F6D77C
:1007A80013C0D9FF14C0DAFF090EDE18D8B4EED78B
:1007B800000E1A6E000E196E186A13C0D9FF14C005
:1007C800DAFF2D0EDE18D8A402D0182A08D013C0DC
:1007D800D9FF14C0DAFF2B0EDE18D8A41DD0134A97
:1007E800142A1AD00A0E1902F3CF15F0F4CF16F016
:1007F8001A02F350162613C0D9FF14C0DAFFDF50CF
:10080800176E17501526000E1622D00E1524196ED5
:10081800FF0E16201A6EE3D713C0D9FF14C0DAFFF3
:10082800DF5005EC07F0D8B0DDD71850D8B40DD09C
:1008380019C015F01AC016F0151E161E154A162AEC
:1008480015C013F016C014F0120019C013F01AC026
:1008580014F012002F6E640E2F6402D0640E2F6EF7
:10086800CB50296E2A6AD89029362A36D89029364C
:100878002A36030E29242B6E000E2A202C6E2F50A8
:10088800106E116A126A136A2BC014F02CC015F08E
:10089800166A176AF8EC04F010C01CF011C01DF0BD
:1008A80012C01EF013C01FF0640E206E000E216EE1
:1008B800000E226E000E236E7DEC04F01CC02DF09D
:1008C8001DC02EF02DC029F02EC02AF0D8902A3253
:1008D8002932D8902A3229322950BE6E2DC029F0EB
:1008E800030E2916293ABD502918CF0B2918BD6EB9
:1008F8001200000E246E000E256E000E266E000EED
:10090800276E2050211022102310D8B42AD0010EAF
:10091800286E06D0D8902036213622362336282A4B
:1009280023AEF8D7D89024362536263627362050D9
:100938001C5C21501D5822501E5823501F58D8A007
:1009480009D020501C5E21501D5A22501E5A235097
:100958001F5A2480D8902332223221322032282E66
:10096800E1D724C01CF025C01DF026C01EF027C00A
:100978001FF012002CD010C0D9FF11C0DAFFDF50D1
:10098800D8B40FD010C0D9FF11C0DAFFDF50166EEF
:1009980012C0F6FF13C0F7FF0800F5501618D8B4B8
:1009A80012D010C0D9FF11C0DAFFDF50166E12C086
:1009B800F6FF13C0F7FF0800F550165C106E116AB9
:1009C800D8A011061200104A112A124A132A140636
:1009D800D8A015061428CFE11528D8A4CCD7000E26
:1009E800116E000E106E1200000E186E000E196EB9
:1009F800000E1A6E000E1B6E10A008D01450182698
:100A08001550192216501A2217501B22D890143646
:100A1800153616361736D890133212321132103274
:100A28001050111012101310D8A4E6D718C010F0E7
:100A380019C011F01AC012F01BC013F012009494E0
:100A480092680E0EC16EA90EC06EC26A9380938220
:100A58009388938A938C95909592F19EF286F28E64
:100A6800F290F19C13EC07F02AEC07F047EC07F042
:100A7800320E2EEC04F01A0E116E7F0E126E4CEC34
:100A880005F04E50D8B4FDD753EC01F04E6AF9D7B3
:100A980014D011C0F6FF12C0F7FFF86A070EF7640A
:100AA80003D00800F55005D0F6CFE9FFF7CFEAFFED
:100AB800EF5030EC07F0114A122A11C0F6FF12C0AD
:100AC800F7FFF86A070EF76403D00800F55005D061
:100AD800F6CFE9FFF7CFEAFFEF500009D8B41200CC
:100AE800D8D7000E156E000E146E12501310D8B41D
:100AF8001CD0010E166E04D0D89012361336162A62
:100B080013AEFAD7D890143615361250105C13501D
:100B18001158D8A005D01250105E1350115A1480E5
:100B2800D89013321232162EEDD714C010F015C01B
:100B380011F01200116E136A939011AE03D0106A6F
:100B4800102A01D0106A8A501018FE0B10188A6EED
:100B580042EC07F08A8242EC07F08A92D89011366C
:100B6800132A070E1364E8D7938042EC07F08A82B1
:100B780042EC07F081B002D0010E01D0000E126ED7
:100B88008A921250120014D002C0F6FF03C0F7FF79
:100B9800F86A070EF76403D00800F55005D0F6CFC1
:100BA800E9FFF7CFEAFFEF5036EC07F0024A032AD5
:100BB80002C0F6FF03C0F7FFF86A070EF76403D018
:100BC8000800F55005D0F6CFE9FFF7CFEAFFEF5060
:100BD8000009D8B41200D8D7116E126A9380136A2C
:100BE800D89012368A8242EC07F081B012808A923D
:100BF80042EC07F0132A070E1364F2D793901150B2
:100C0800D8A403D0106A102A01D0106A8A5010188C
:100C1800FE0B10188A6E42EC07F08A8242EC07F04D
:100C28008A9293801250120004D0104A112A124A54
:100C3800132A12C0F6FF13C0F7FF0800F5CF14F00F
:100C480010C0D9FF11C0DAFFDF50156E1450155CC3
:100C5800166E1650D8A407D010C0D9FF11C0DAFFFD
:100C6800DF50D8A4E2D71650106E116A10BE1106D4
:100C78001200940EF66E0E0EF76E000EF86E00EE71
:100C880048F010EE05F00900F5CFEEFFE550E15011
:100C9800FAE10101DF6BDE6B00EE60F0400EEE6AF8
:100CA800E806FDE14E6A4D6A4F904F92000EF86ECD
:100CB800000123EF05F010C014F011C015F004D0A6
:100CC800144A152A124A132A12C0F6FF13C0F7FF56
:100CD800F86A14C0D9FF15C0DAFF070EF76403D00D
:100CE8000800F55005D0F6CFE9FFF7CFEAFFEF503F
:100CF800DF6EDF50D8B41200E3D719501A10D8B4F9
:100D080018D0010E1B6E04D0D89019361A361B2A3B
:100D18001AAEFAD71950175C1A501858D8A004D030
:100D28001950175E1A50185AD8901A3219321B2EB9
:100D3800F1D717C017F018C018F01200166EC70EBA
:100D4800C2161638E842F80BC212C280210EE82EED
:100D5800FED70000C282C2B2FED7C350C4CF12F081
:100D6800136A12C013F0126A1210146E1350156E23
:100D7800C29014C010F015C011F0120010501202E9
:100D8800F3CF14F0F4CF15F010501302F3501526DA
:100D980011501202F350152614C010F015C011F0AE
:100DA800120010C015F006D01550D96EDA6A11C0BD
:100DB800DFFF152A1306D8A014061328F5E1142816
:100DC800D8B41200F1D793908A9093928A9242EC09
:100DD80007F08A8242EC07F08A8042EC07F09380A1
:100DE800938212009380938242EC07F093908A805A
:100DF8008A82939242EC07F08A9042EC07F08A923A
:100E08001200126E116A3A0E126005D02F0E12648B
:100E180002D0010E116E11C010F010301200948C27
:100E2800948E810EAF6EAC84AB8EAC8AAB889D8AF3
:100E3800F28CF28E1200116E11C010F00F0E101607
:100E480011380F0B0A0DF35010241200CB680C0E4A
:100E5800BD6E040ECA6E1200106EACA2FED710C092
:100E6800ADFF1200016EACA2FED701C0ADFF1200AB
:100E7800ABA202D0AB98AB88AE501200080EE82E99
:100E8800FED7000012009380938212000101010234
:010E98003227
:107E36000001000A006400E8031027496E677265B6
:107E4600736520647574792028302D3130302920EF
:107E56006F2052455455524E2070617261207361F5
:107E66006C69723A0D0A00253032753A2530327542
:107E76003A2530327520253032752F253032752F50
:107E86003230253032750050574D2076616C6F7256
:107E960020696E76E16C69646F2028302D313030B0
:107EA600292E0D0A00436F6D616E646F206E6F2080
:107EB6007265636F6E6F6369646F2E0D0A004552BB
:107EC600524F523A204E6F2041434B207265672035
:107ED60030783030000D0A2D2D2D204D454E552081
:107EE60050574D202D2D2D0D0A0053616C69656E7E
:107EF600646F2064656C206D656E752E0D0A0053E7
:107F0600656E7469646F3A20495A51554945524421
:107F1600410D0A0053697374656D6120696E69636A
:107F26006961646F2E0D0A0050574D2073657420E9
:107F3600746F3A20257525250D0A004E7565766FF6
:107F460020647574793A20257525250D0A00536538
:107F56006E7469646F3A20444552454348410D0AA0
:107F6600004D6F746F723A20454E43454E44494466
:107F76004F0D0A004552524F523A204E6F20414350
:107F86004B2030784430004552524F523A204E6FC3
:107F96002041434B20307844310056616C6F72208B
:107FA600696E76616C69646F2E0D0A004D6F746F91
:107FB600723A204150414741444F0D0A0041444323
:107FC60020414E303A2025750D0A00486F72612017
:107FD6005254433A200054494D45524541440041CC
:107FE600444352454144004D454E553031005245BB
:0A7FF6005455524E0050574D000044
:020000040030CA
:08000000000C1F1EFF8181FFAF
:00000001FF
